{"abi":[{"type":"constructor","inputs":[{"name":"_profitRecipient","type":"address","internalType":"address"}],"stateMutability":"nonpayable"},{"type":"function","name":"executeArbitrage","inputs":[{"name":"flashLoanProvider","type":"address","internalType":"address"},{"name":"loanToken","type":"address","internalType":"address"},{"name":"loanAmount","type":"uint256","internalType":"uint256"},{"name":"routers","type":"address[]","internalType":"address[]"},{"name":"swapPaths","type":"address[][]","internalType":"address[][]"},{"name":"amountsIn","type":"uint256[]","internalType":"uint256[]"},{"name":"amountsOutMin","type":"uint256[]","internalType":"uint256[]"}],"outputs":[],"stateMutability":"nonpayable"},{"type":"function","name":"onFlashLoan","inputs":[{"name":"initiator","type":"address","internalType":"address"},{"name":"token","type":"address","internalType":"address"},{"name":"amount","type":"uint256","internalType":"uint256"},{"name":"fee","type":"uint256","internalType":"uint256"},{"name":"data","type":"bytes","internalType":"bytes"}],"outputs":[],"stateMutability":"nonpayable"},{"type":"function","name":"owner","inputs":[],"outputs":[{"name":"","type":"address","internalType":"address"}],"stateMutability":"view"},{"type":"function","name":"profitRecipient","inputs":[],"outputs":[{"name":"","type":"address","internalType":"address"}],"stateMutability":"view"},{"type":"function","name":"setProfitRecipient","inputs":[{"name":"_recipient","type":"address","internalType":"address"}],"outputs":[],"stateMutability":"nonpayable"},{"type":"event","name":"ArbitrageExecuted","inputs":[{"name":"initiator","type":"address","indexed":true,"internalType":"address"},{"name":"profit","type":"uint256","indexed":false,"internalType":"uint256"}],"anonymous":false}],"bytecode":{"object":"0x608060405234801561000f575f5ffd5b50604051611a3e380380611a3e83398181016040528101906100319190610114565b335f5f6101000a81548173ffffffffffffffffffffffffffffffffffffffff021916908373ffffffffffffffffffffffffffffffffffffffff1602179055508060015f6101000a81548173ffffffffffffffffffffffffffffffffffffffff021916908373ffffffffffffffffffffffffffffffffffffffff1602179055505061013f565b5f5ffd5b5f73ffffffffffffffffffffffffffffffffffffffff82169050919050565b5f6100e3826100ba565b9050919050565b6100f3816100d9565b81146100fd575f5ffd5b50565b5f8151905061010e816100ea565b92915050565b5f60208284031215610129576101286100b6565b5b5f61013684828501610100565b91505092915050565b6118f28061014c5f395ff3fe608060405234801561000f575f5ffd5b5060043610610055575f3560e01c806323e30c8b146100595780634795084f146100755780637e2bad1e146100915780638da5cb5b146100af57806397627cbc146100cd575b5f5ffd5b610073600480360381019061006e91906109b1565b6100e9565b005b61008f600480360381019061008a9190610a47565b6105f5565b005b6100996106c6565b6040516100a69190610a81565b60405180910390f35b6100b76106eb565b6040516100c49190610a81565b60405180910390f35b6100e760048036038101906100e29190610b99565b61070f565b005b3273ffffffffffffffffffffffffffffffffffffffff163373ffffffffffffffffffffffffffffffffffffffff16148061016e57505f5f9054906101000a900473ffffffffffffffffffffffffffffffffffffffff1673ffffffffffffffffffffffffffffffffffffffff163373ffffffffffffffffffffffffffffffffffffffff16145b6101ad576040517f08c379a00000000000000000000000000000000000000000000000000000000081526004016101a490610d10565b60405180910390fd5b5f5f5f5f85858101906101c09190611014565b93509350935093505f8990505f8990505f5f90505b8651811015610413578273ffffffffffffffffffffffffffffffffffffffff1663095ea7b388838151811061020d5761020c6110e8565b5b6020026020010151878481518110610228576102276110e8565b5b60200260200101516040518363ffffffff1660e01b815260040161024d929190611124565b6020604051808303815f875af1158015610269573d5f5f3e3d5ffd5b505050506040513d601f19601f8201168201806040525081019061028d9190611180565b505f8782815181106102a2576102a16110e8565b5b602002602001015173ffffffffffffffffffffffffffffffffffffffff166338ed17398784815181106102d8576102d76110e8565b5b60200260200101518785815181106102f3576102f26110e8565b5b60200260200101518a868151811061030e5761030d6110e8565b5b602002602001015130426040518663ffffffff1660e01b8152600401610338959493929190611262565b5f604051808303815f875af1158015610353573d5f5f3e3d5ffd5b505050506040513d5f823e3d601f19601f8201168201806040525081019061037b9190611363565b90508682815181106103905761038f6110e8565b5b602002602001015160018884815181106103ad576103ac6110e8565b5b6020026020010151516103c091906113d7565b815181106103d1576103d06110e8565b5b6020026020010151935080600182516103ea91906113d7565b815181106103fb576103fa6110e8565b5b602002602001015192505080806001019150506101d5565b505f898b610421919061140a565b905080821015610466576040517f08c379a000000000000000000000000000000000000000000000000000000000815260040161045d90611487565b60405180910390fd5b8273ffffffffffffffffffffffffffffffffffffffff1663a9059cbb33836040518363ffffffff1660e01b81526004016104a1929190611124565b6020604051808303815f875af11580156104bd573d5f5f3e3d5ffd5b505050506040513d601f19601f820116820180604052508101906104e19190611180565b505f81836104ef91906113d7565b90505f811115610597578373ffffffffffffffffffffffffffffffffffffffff1663a9059cbb60015f9054906101000a900473ffffffffffffffffffffffffffffffffffffffff16836040518363ffffffff1660e01b8152600401610555929190611124565b6020604051808303815f875af1158015610571573d5f5f3e3d5ffd5b505050506040513d601f19601f820116820180604052508101906105959190611180565b505b8d73ffffffffffffffffffffffffffffffffffffffff167f972395fa18a09986c9b239da16e04fbe5c3736528787885746a83439cdc2f0bc826040516105dd91906114a5565b60405180910390a25050505050505050505050505050565b5f5f9054906101000a900473ffffffffffffffffffffffffffffffffffffffff1673ffffffffffffffffffffffffffffffffffffffff163373ffffffffffffffffffffffffffffffffffffffff1614610683576040517f08c379a000000000000000000000000000000000000000000000000000000000815260040161067a90610d10565b60405180910390fd5b8060015f6101000a81548173ffffffffffffffffffffffffffffffffffffffff021916908373ffffffffffffffffffffffffffffffffffffffff16021790555050565b60015f9054906101000a900473ffffffffffffffffffffffffffffffffffffffff1681565b5f5f9054906101000a900473ffffffffffffffffffffffffffffffffffffffff1681565b5f5f9054906101000a900473ffffffffffffffffffffffffffffffffffffffff1673ffffffffffffffffffffffffffffffffffffffff163373ffffffffffffffffffffffffffffffffffffffff161461079d576040517f08c379a000000000000000000000000000000000000000000000000000000000815260040161079490610d10565b60405180910390fd5b85859050888890501480156107b757508383905088889050145b80156107c857508181905088889050145b610807576040517f08c379a00000000000000000000000000000000000000000000000000000000081526004016107fe90611508565b60405180910390fd5b5f88888888888888886040516020016108279897969594939291906117ab565b60405160208183030381529060405290508b73ffffffffffffffffffffffffffffffffffffffff16635cffe9de308d8d856040518563ffffffff1660e01b81526004016108779493929190611872565b5f604051808303815f87803b15801561088e575f5ffd5b505af11580156108a0573d5f5f3e3d5ffd5b50505050505050505050505050505050565b5f604051905090565b5f5ffd5b5f5ffd5b5f73ffffffffffffffffffffffffffffffffffffffff82169050919050565b5f6108ec826108c3565b9050919050565b6108fc816108e2565b8114610906575f5ffd5b50565b5f81359050610917816108f3565b92915050565b5f819050919050565b61092f8161091d565b8114610939575f5ffd5b50565b5f8135905061094a81610926565b92915050565b5f5ffd5b5f5ffd5b5f5ffd5b5f5f83601f84011261097157610970610950565b5b8235905067ffffffffffffffff81111561098e5761098d610954565b5b6020830191508360018202830111156109aa576109a9610958565b5b9250929050565b5f5f5f5f5f5f60a087890312156109cb576109ca6108bb565b5b5f6109d889828a01610909565b96505060206109e989828a01610909565b95505060406109fa89828a0161093c565b9450506060610a0b89828a0161093c565b935050608087013567ffffffffffffffff811115610a2c57610a2b6108bf565b5b610a3889828a0161095c565b92509250509295509295509295565b5f60208284031215610a5c57610a5b6108bb565b5b5f610a6984828501610909565b91505092915050565b610a7b816108e2565b82525050565b5f602082019050610a945f830184610a72565b92915050565b5f5f83601f840112610aaf57610aae610950565b5b8235905067ffffffffffffffff811115610acc57610acb610954565b5b602083019150836020820283011115610ae857610ae7610958565b5b9250929050565b5f5f83601f840112610b0457610b03610950565b5b8235905067ffffffffffffffff811115610b2157610b20610954565b5b602083019150836020820283011115610b3d57610b3c610958565b5b9250929050565b5f5f83601f840112610b5957610b58610950565b5b8235905067ffffffffffffffff811115610b7657610b75610954565b5b602083019150836020820283011115610b9257610b91610958565b5b9250929050565b5f5f5f5f5f5f5f5f5f5f5f60e08c8e031215610bb857610bb76108bb565b5b5f610bc58e828f01610909565b9b50506020610bd68e828f01610909565b9a50506040610be78e828f0161093c565b99505060608c013567ffffffffffffffff811115610c0857610c076108bf565b5b610c148e828f01610a9a565b985098505060808c013567ffffffffffffffff811115610c3757610c366108bf565b5b610c438e828f01610aef565b965096505060a08c013567ffffffffffffffff811115610c6657610c656108bf565b5b610c728e828f01610b44565b945094505060c08c013567ffffffffffffffff811115610c9557610c946108bf565b5b610ca18e828f01610b44565b92509250509295989b509295989b9093969950565b5f82825260208201905092915050565b7f4e6f7420617574686f72697a65640000000000000000000000000000000000005f82015250565b5f610cfa600e83610cb6565b9150610d0582610cc6565b602082019050919050565b5f6020820190508181035f830152610d2781610cee565b9050919050565b5f601f19601f8301169050919050565b7f4e487b71000000000000000000000000000000000000000000000000000000005f52604160045260245ffd5b610d7482610d2e565b810181811067ffffffffffffffff82111715610d9357610d92610d3e565b5b80604052505050565b5f610da56108b2565b9050610db18282610d6b565b919050565b5f67ffffffffffffffff821115610dd057610dcf610d3e565b5b602082029050602081019050919050565b5f610df3610dee84610db6565b610d9c565b90508083825260208201905060208402830185811115610e1657610e15610958565b5b835b81811015610e3f5780610e2b8882610909565b845260208401935050602081019050610e18565b5050509392505050565b5f82601f830112610e5d57610e5c610950565b5b8135610e6d848260208601610de1565b91505092915050565b5f67ffffffffffffffff821115610e9057610e8f610d3e565b5b602082029050602081019050919050565b5f610eb3610eae84610e76565b610d9c565b90508083825260208201905060208402830185811115610ed657610ed5610958565b5b835b81811015610f1d57803567ffffffffffffffff811115610efb57610efa610950565b5b808601610f088982610e49565b85526020850194505050602081019050610ed8565b5050509392505050565b5f82601f830112610f3b57610f3a610950565b5b8135610f4b848260208601610ea1565b91505092915050565b5f67ffffffffffffffff821115610f6e57610f6d610d3e565b5b602082029050602081019050919050565b5f610f91610f8c84610f54565b610d9c565b90508083825260208201905060208402830185811115610fb457610fb3610958565b5b835b81811015610fdd5780610fc9888261093c565b845260208401935050602081019050610fb6565b5050509392505050565b5f82601f830112610ffb57610ffa610950565b5b813561100b848260208601610f7f565b91505092915050565b5f5f5f5f6080858703121561102c5761102b6108bb565b5b5f85013567ffffffffffffffff811115611049576110486108bf565b5b61105587828801610e49565b945050602085013567ffffffffffffffff811115611076576110756108bf565b5b61108287828801610f27565b935050604085013567ffffffffffffffff8111156110a3576110a26108bf565b5b6110af87828801610fe7565b925050606085013567ffffffffffffffff8111156110d0576110cf6108bf565b5b6110dc87828801610fe7565b91505092959194509250565b7f4e487b71000000000000000000000000000000000000000000000000000000005f52603260045260245ffd5b61111e8161091d565b82525050565b5f6040820190506111375f830185610a72565b6111446020830184611115565b9392505050565b5f8115159050919050565b61115f8161114b565b8114611169575f5ffd5b50565b5f8151905061117a81611156565b92915050565b5f60208284031215611195576111946108bb565b5b5f6111a28482850161116c565b91505092915050565b5f81519050919050565b5f82825260208201905092915050565b5f819050602082019050919050565b6111dd816108e2565b82525050565b5f6111ee83836111d4565b60208301905092915050565b5f602082019050919050565b5f611210826111ab565b61121a81856111b5565b9350611225836111c5565b805f5b8381101561125557815161123c88826111e3565b9750611247836111fa565b925050600181019050611228565b5085935050505092915050565b5f60a0820190506112755f830188611115565b6112826020830187611115565b81810360408301526112948186611206565b90506112a36060830185610a72565b6112b06080830184611115565b9695505050505050565b5f815190506112c881610926565b92915050565b5f6112e06112db84610f54565b610d9c565b9050808382526020820190506020840283018581111561130357611302610958565b5b835b8181101561132c578061131888826112ba565b845260208401935050602081019050611305565b5050509392505050565b5f82601f83011261134a57611349610950565b5b815161135a8482602086016112ce565b91505092915050565b5f60208284031215611378576113776108bb565b5b5f82015167ffffffffffffffff811115611395576113946108bf565b5b6113a184828501611336565b91505092915050565b7f4e487b71000000000000000000000000000000000000000000000000000000005f52601160045260245ffd5b5f6113e18261091d565b91506113ec8361091d565b9250828203905081811115611404576114036113aa565b5b92915050565b5f6114148261091d565b915061141f8361091d565b9250828201905080821115611437576114366113aa565b5b92915050565b7f4e6f2070726f66697400000000000000000000000000000000000000000000005f82015250565b5f611471600983610cb6565b915061147c8261143d565b602082019050919050565b5f6020820190508181035f83015261149e81611465565b9050919050565b5f6020820190506114b85f830184611115565b92915050565b7f496e707574206172726179206d69736d617463680000000000000000000000005f82015250565b5f6114f2601483610cb6565b91506114fd826114be565b602082019050919050565b5f6020820190508181035f83015261151f816114e6565b9050919050565b5f819050919050565b5f61153d6020840184610909565b905092915050565b5f602082019050919050565b5f61155c83856111b5565b935061156782611526565b805f5b8581101561159f5761157c828461152f565b61158688826111e3565b975061159183611545565b92505060018101905061156a565b5085925050509392505050565b5f82825260208201905092915050565b5f819050919050565b5f82825260208201905092915050565b5f6115e083856115c5565b93506115eb82611526565b805f5b8581101561162357611600828461152f565b61160a88826111e3565b975061161583611545565b9250506001810190506115ee565b5085925050509392505050565b5f61163c8484846115d5565b90509392505050565b5f5ffd5b5f5ffd5b5f5ffd5b5f5f8335600160200384360303811261166d5761166c61164d565b5b83810192508235915060208301925067ffffffffffffffff82111561169557611694611645565b5b6020820236038313156116ab576116aa611649565b5b509250929050565b5f602082019050919050565b5f6116ca83856115ac565b9350836020840285016116dc846115bc565b805f5b878110156117215784840389526116f68284611651565b611701868284611630565b955061170c846116b3565b935060208b019a5050506001810190506116df565b50829750879450505050509392505050565b5f82825260208201905092915050565b5f5ffd5b82818337505050565b5f61175b8385611733565b93507f07ffffffffffffffffffffffffffffffffffffffffffffffffffffffffffffff83111561178e5761178d611743565b5b60208302925061179f838584611747565b82840190509392505050565b5f6080820190508181035f8301526117c4818a8c611551565b905081810360208301526117d981888a6116bf565b905081810360408301526117ee818688611750565b90508181036060830152611803818486611750565b90509998505050505050505050565b5f81519050919050565b5f82825260208201905092915050565b8281835e5f83830152505050565b5f61184482611812565b61184e818561181c565b935061185e81856020860161182c565b61186781610d2e565b840191505092915050565b5f6080820190506118855f830187610a72565b6118926020830186610a72565b61189f6040830185611115565b81810360608301526118b1818461183a565b90509594505050505056fea26469706673582212200f3c2e573ae41b49445d6bf347965fb963d32a0dde4dc0743fcbc7ac18ff3b2b64736f6c634300081d0033","linkReferences":{}},"methodIdentifiers":{"executeArbitrage(address,address,uint256,address[],address[][],uint256[],uint256[])":"97627cbc","onFlashLoan(address,address,uint256,uint256,bytes)":"23e30c8b","owner()":"8da5cb5b","profitRecipient()":"7e2bad1e","setProfitRecipient(address)":"4795084f"},"id":2}